{
  "_format": "hh-sol-artifact-1",
  "contractName": "MyToken",
  "sourceName": "contracts/test/mock/MyToken.sol",
  "abi": [
    {
      "inputs": [
        {
          "internalType": "address",
          "name": "initialOwner",
          "type": "address"
        }
      ],
      "stateMutability": "nonpayable",
      "type": "constructor"
    },
    {
      "inputs": [],
      "name": "ECDSAInvalidSignature",
      "type": "error"
    },
    {
      "inputs": [
        {
          "internalType": "uint256",
          "name": "length",
          "type": "uint256"
        }
      ],
      "name": "ECDSAInvalidSignatureLength",
      "type": "error"
    },
    {
      "inputs": [
        {
          "internalType": "bytes32",
          "name": "s",
          "type": "bytes32"
        }
      ],
      "name": "ECDSAInvalidSignatureS",
      "type": "error"
    },
    {
      "inputs": [
        {
          "internalType": "address",
          "name": "spender",
          "type": "address"
        },
        {
          "internalType": "uint256",
          "name": "allowance",
          "type": "uint256"
        },
        {
          "internalType": "uint256",
          "name": "needed",
          "type": "uint256"
        }
      ],
      "name": "ERC20InsufficientAllowance",
      "type": "error"
    },
    {
      "inputs": [
        {
          "internalType": "address",
          "name": "sender",
          "type": "address"
        },
        {
          "internalType": "uint256",
          "name": "balance",
          "type": "uint256"
        },
        {
          "internalType": "uint256",
          "name": "needed",
          "type": "uint256"
        }
      ],
      "name": "ERC20InsufficientBalance",
      "type": "error"
    },
    {
      "inputs": [
        {
          "internalType": "address",
          "name": "approver",
          "type": "address"
        }
      ],
      "name": "ERC20InvalidApprover",
      "type": "error"
    },
    {
      "inputs": [
        {
          "internalType": "address",
          "name": "receiver",
          "type": "address"
        }
      ],
      "name": "ERC20InvalidReceiver",
      "type": "error"
    },
    {
      "inputs": [
        {
          "internalType": "address",
          "name": "sender",
          "type": "address"
        }
      ],
      "name": "ERC20InvalidSender",
      "type": "error"
    },
    {
      "inputs": [
        {
          "internalType": "address",
          "name": "spender",
          "type": "address"
        }
      ],
      "name": "ERC20InvalidSpender",
      "type": "error"
    },
    {
      "inputs": [
        {
          "internalType": "uint256",
          "name": "deadline",
          "type": "uint256"
        }
      ],
      "name": "ERC2612ExpiredSignature",
      "type": "error"
    },
    {
      "inputs": [
        {
          "internalType": "address",
          "name": "signer",
          "type": "address"
        },
        {
          "internalType": "address",
          "name": "owner",
          "type": "address"
        }
      ],
      "name": "ERC2612InvalidSigner",
      "type": "error"
    },
    {
      "inputs": [
        {
          "internalType": "address",
          "name": "account",
          "type": "address"
        },
        {
          "internalType": "uint256",
          "name": "currentNonce",
          "type": "uint256"
        }
      ],
      "name": "InvalidAccountNonce",
      "type": "error"
    },
    {
      "inputs": [],
      "name": "InvalidShortString",
      "type": "error"
    },
    {
      "inputs": [
        {
          "internalType": "address",
          "name": "owner",
          "type": "address"
        }
      ],
      "name": "OwnableInvalidOwner",
      "type": "error"
    },
    {
      "inputs": [
        {
          "internalType": "address",
          "name": "account",
          "type": "address"
        }
      ],
      "name": "OwnableUnauthorizedAccount",
      "type": "error"
    },
    {
      "inputs": [
        {
          "internalType": "string",
          "name": "str",
          "type": "string"
        }
      ],
      "name": "StringTooLong",
      "type": "error"
    },
    {
      "anonymous": false,
      "inputs": [
        {
          "indexed": true,
          "internalType": "address",
          "name": "owner",
          "type": "address"
        },
        {
          "indexed": true,
          "internalType": "address",
          "name": "spender",
          "type": "address"
        },
        {
          "indexed": false,
          "internalType": "uint256",
          "name": "value",
          "type": "uint256"
        }
      ],
      "name": "Approval",
      "type": "event"
    },
    {
      "anonymous": false,
      "inputs": [],
      "name": "EIP712DomainChanged",
      "type": "event"
    },
    {
      "anonymous": false,
      "inputs": [
        {
          "indexed": true,
          "internalType": "address",
          "name": "previousOwner",
          "type": "address"
        },
        {
          "indexed": true,
          "internalType": "address",
          "name": "newOwner",
          "type": "address"
        }
      ],
      "name": "OwnershipTransferred",
      "type": "event"
    },
    {
      "anonymous": false,
      "inputs": [
        {
          "indexed": true,
          "internalType": "address",
          "name": "from",
          "type": "address"
        },
        {
          "indexed": true,
          "internalType": "address",
          "name": "to",
          "type": "address"
        },
        {
          "indexed": false,
          "internalType": "uint256",
          "name": "value",
          "type": "uint256"
        }
      ],
      "name": "Transfer",
      "type": "event"
    },
    {
      "inputs": [],
      "name": "DOMAIN_SEPARATOR",
      "outputs": [
        {
          "internalType": "bytes32",
          "name": "",
          "type": "bytes32"
        }
      ],
      "stateMutability": "view",
      "type": "function"
    },
    {
      "inputs": [
        {
          "internalType": "address",
          "name": "owner",
          "type": "address"
        },
        {
          "internalType": "address",
          "name": "spender",
          "type": "address"
        }
      ],
      "name": "allowance",
      "outputs": [
        {
          "internalType": "uint256",
          "name": "",
          "type": "uint256"
        }
      ],
      "stateMutability": "view",
      "type": "function"
    },
    {
      "inputs": [
        {
          "internalType": "address",
          "name": "spender",
          "type": "address"
        },
        {
          "internalType": "uint256",
          "name": "value",
          "type": "uint256"
        }
      ],
      "name": "approve",
      "outputs": [
        {
          "internalType": "bool",
          "name": "",
          "type": "bool"
        }
      ],
      "stateMutability": "nonpayable",
      "type": "function"
    },
    {
      "inputs": [
        {
          "internalType": "address",
          "name": "account",
          "type": "address"
        }
      ],
      "name": "balanceOf",
      "outputs": [
        {
          "internalType": "uint256",
          "name": "",
          "type": "uint256"
        }
      ],
      "stateMutability": "view",
      "type": "function"
    },
    {
      "inputs": [],
      "name": "decimals",
      "outputs": [
        {
          "internalType": "uint8",
          "name": "",
          "type": "uint8"
        }
      ],
      "stateMutability": "view",
      "type": "function"
    },
    {
      "inputs": [],
      "name": "eip712Domain",
      "outputs": [
        {
          "internalType": "bytes1",
          "name": "fields",
          "type": "bytes1"
        },
        {
          "internalType": "string",
          "name": "name",
          "type": "string"
        },
        {
          "internalType": "string",
          "name": "version",
          "type": "string"
        },
        {
          "internalType": "uint256",
          "name": "chainId",
          "type": "uint256"
        },
        {
          "internalType": "address",
          "name": "verifyingContract",
          "type": "address"
        },
        {
          "internalType": "bytes32",
          "name": "salt",
          "type": "bytes32"
        },
        {
          "internalType": "uint256[]",
          "name": "extensions",
          "type": "uint256[]"
        }
      ],
      "stateMutability": "view",
      "type": "function"
    },
    {
      "inputs": [],
      "name": "name",
      "outputs": [
        {
          "internalType": "string",
          "name": "",
          "type": "string"
        }
      ],
      "stateMutability": "view",
      "type": "function"
    },
    {
      "inputs": [
        {
          "internalType": "address",
          "name": "owner",
          "type": "address"
        }
      ],
      "name": "nonces",
      "outputs": [
        {
          "internalType": "uint256",
          "name": "",
          "type": "uint256"
        }
      ],
      "stateMutability": "view",
      "type": "function"
    },
    {
      "inputs": [],
      "name": "owner",
      "outputs": [
        {
          "internalType": "address",
          "name": "",
          "type": "address"
        }
      ],
      "stateMutability": "view",
      "type": "function"
    },
    {
      "inputs": [
        {
          "internalType": "address",
          "name": "owner",
          "type": "address"
        },
        {
          "internalType": "address",
          "name": "spender",
          "type": "address"
        },
        {
          "internalType": "uint256",
          "name": "value",
          "type": "uint256"
        },
        {
          "internalType": "uint256",
          "name": "deadline",
          "type": "uint256"
        },
        {
          "internalType": "uint8",
          "name": "v",
          "type": "uint8"
        },
        {
          "internalType": "bytes32",
          "name": "r",
          "type": "bytes32"
        },
        {
          "internalType": "bytes32",
          "name": "s",
          "type": "bytes32"
        }
      ],
      "name": "permit",
      "outputs": [],
      "stateMutability": "nonpayable",
      "type": "function"
    },
    {
      "inputs": [],
      "name": "renounceOwnership",
      "outputs": [],
      "stateMutability": "nonpayable",
      "type": "function"
    },
    {
      "inputs": [],
      "name": "symbol",
      "outputs": [
        {
          "internalType": "string",
          "name": "",
          "type": "string"
        }
      ],
      "stateMutability": "view",
      "type": "function"
    },
    {
      "inputs": [],
      "name": "totalSupply",
      "outputs": [
        {
          "internalType": "uint256",
          "name": "",
          "type": "uint256"
        }
      ],
      "stateMutability": "view",
      "type": "function"
    },
    {
      "inputs": [
        {
          "internalType": "address",
          "name": "to",
          "type": "address"
        },
        {
          "internalType": "uint256",
          "name": "value",
          "type": "uint256"
        }
      ],
      "name": "transfer",
      "outputs": [
        {
          "internalType": "bool",
          "name": "",
          "type": "bool"
        }
      ],
      "stateMutability": "nonpayable",
      "type": "function"
    },
    {
      "inputs": [
        {
          "internalType": "address",
          "name": "from",
          "type": "address"
        },
        {
          "internalType": "address",
          "name": "to",
          "type": "address"
        },
        {
          "internalType": "uint256",
          "name": "value",
          "type": "uint256"
        }
      ],
      "name": "transferFrom",
      "outputs": [
        {
          "internalType": "bool",
          "name": "",
          "type": "bool"
        }
      ],
      "stateMutability": "nonpayable",
      "type": "function"
    },
    {
      "inputs": [
        {
          "internalType": "address",
          "name": "newOwner",
          "type": "address"
        }
      ],
      "name": "transferOwnership",
      "outputs": [],
      "stateMutability": "nonpayable",
      "type": "function"
    }
  ],
  "bytecode": "0x6101606040523480156200001257600080fd5b5060405162002d1438038062002d148339818101604052810190620000389190620007b9565b6040518060400160405280600781526020017f4d79546f6b656e00000000000000000000000000000000000000000000000000815250806040518060400160405280600181526020017f3100000000000000000000000000000000000000000000000000000000000000815250836040518060400160405280600781526020017f4d79546f6b656e000000000000000000000000000000000000000000000000008152506040518060400160405280600381526020017f4d544b0000000000000000000000000000000000000000000000000000000000815250816003908162000123919062000a65565b50806004908162000135919062000a65565b505050600073ffffffffffffffffffffffffffffffffffffffff168173ffffffffffffffffffffffffffffffffffffffff1603620001ad5760006040517f1e4fbdf7000000000000000000000000000000000000000000000000000000008152600401620001a4919062000b5d565b60405180910390fd5b620001be81620002a060201b60201c565b50620001d56006836200036660201b90919060201c565b6101208181525050620001f36007826200036660201b90919060201c565b6101408181525050818051906020012060e08181525050808051906020012061010081815250504660a0818152505062000232620003be60201b60201c565b608081815250503073ffffffffffffffffffffffffffffffffffffffff1660c08173ffffffffffffffffffffffffffffffffffffffff1681525050505050620002998176010b46c6cdd6e3e0828f4db456ff0c8ea00000000000006200041b60201b60201c565b5062000e1c565b6000600560009054906101000a900473ffffffffffffffffffffffffffffffffffffffff16905081600560006101000a81548173ffffffffffffffffffffffffffffffffffffffff021916908373ffffffffffffffffffffffffffffffffffffffff1602179055508173ffffffffffffffffffffffffffffffffffffffff168173ffffffffffffffffffffffffffffffffffffffff167f8be0079c531659141344cd1fd0a4f28419497f9722a3daafe3b4186f6b6457e060405160405180910390a35050565b60006020835110156200038c576200038483620004a860201b60201c565b9050620003b8565b826200039e836200051560201b60201c565b6000019081620003af919062000a65565b5060ff60001b90505b92915050565b60007f8b73c3c69bb8fe3d512ecc4cf759cc79239f7b179b0ffacaa9a75d522b39400f60e0516101005146306040516020016200040095949392919062000ba6565b60405160208183030381529060405280519060200120905090565b600073ffffffffffffffffffffffffffffffffffffffff168273ffffffffffffffffffffffffffffffffffffffff1603620004905760006040517fec442f0500000000000000000000000000000000000000000000000000000000815260040162000487919062000b5d565b60405180910390fd5b620004a4600083836200051f60201b60201c565b5050565b600080829050601f81511115620004f857826040517f305a27a9000000000000000000000000000000000000000000000000000000008152600401620004ef919062000c92565b60405180910390fd5b805181620005069062000ce8565b60001c1760001b915050919050565b6000819050919050565b600073ffffffffffffffffffffffffffffffffffffffff168373ffffffffffffffffffffffffffffffffffffffff16036200057557806002600082825462000568919062000d87565b925050819055506200064b565b60008060008573ffffffffffffffffffffffffffffffffffffffff1673ffffffffffffffffffffffffffffffffffffffff1681526020019081526020016000205490508181101562000604578381836040517fe450d38c000000000000000000000000000000000000000000000000000000008152600401620005fb9392919062000dc2565b60405180910390fd5b8181036000808673ffffffffffffffffffffffffffffffffffffffff1673ffffffffffffffffffffffffffffffffffffffff16815260200190815260200160002081905550505b600073ffffffffffffffffffffffffffffffffffffffff168273ffffffffffffffffffffffffffffffffffffffff1603620006965780600260008282540392505081905550620006e3565b806000808473ffffffffffffffffffffffffffffffffffffffff1673ffffffffffffffffffffffffffffffffffffffff168152602001908152602001600020600082825401925050819055505b8173ffffffffffffffffffffffffffffffffffffffff168373ffffffffffffffffffffffffffffffffffffffff167fddf252ad1be2c89b69c2b068fc378daa952ba7f163c4a11628f55a4df523b3ef8360405162000742919062000dff565b60405180910390a3505050565b600080fd5b600073ffffffffffffffffffffffffffffffffffffffff82169050919050565b6000620007818262000754565b9050919050565b620007938162000774565b81146200079f57600080fd5b50565b600081519050620007b38162000788565b92915050565b600060208284031215620007d257620007d16200074f565b5b6000620007e284828501620007a2565b91505092915050565b600081519050919050565b7f4e487b7100000000000000000000000000000000000000000000000000000000600052604160045260246000fd5b7f4e487b7100000000000000000000000000000000000000000000000000000000600052602260045260246000fd5b600060028204905060018216806200086d57607f821691505b60208210810362000883576200088262000825565b5b50919050565b60008190508160005260206000209050919050565b60006020601f8301049050919050565b600082821b905092915050565b600060088302620008ed7fffffffffffffffffffffffffffffffffffffffffffffffffffffffffffffffff82620008ae565b620008f98683620008ae565b95508019841693508086168417925050509392505050565b6000819050919050565b6000819050919050565b600062000946620009406200093a8462000911565b6200091b565b62000911565b9050919050565b6000819050919050565b620009628362000925565b6200097a62000971826200094d565b848454620008bb565b825550505050565b600090565b6200099162000982565b6200099e81848462000957565b505050565b5b81811015620009c657620009ba60008262000987565b600181019050620009a4565b5050565b601f82111562000a1557620009df8162000889565b620009ea846200089e565b81016020851015620009fa578190505b62000a1262000a09856200089e565b830182620009a3565b50505b505050565b600082821c905092915050565b600062000a3a6000198460080262000a1a565b1980831691505092915050565b600062000a55838362000a27565b9150826002028217905092915050565b62000a7082620007eb565b67ffffffffffffffff81111562000a8c5762000a8b620007f6565b5b62000a98825462000854565b62000aa5828285620009ca565b600060209050601f83116001811462000add576000841562000ac8578287015190505b62000ad4858262000a47565b86555062000b44565b601f19841662000aed8662000889565b60005b8281101562000b175784890151825560018201915060208501945060208101905062000af0565b8683101562000b37578489015162000b33601f89168262000a27565b8355505b6001600288020188555050505b505050505050565b62000b578162000774565b82525050565b600060208201905062000b74600083018462000b4c565b92915050565b6000819050919050565b62000b8f8162000b7a565b82525050565b62000ba08162000911565b82525050565b600060a08201905062000bbd600083018862000b84565b62000bcc602083018762000b84565b62000bdb604083018662000b84565b62000bea606083018562000b95565b62000bf9608083018462000b4c565b9695505050505050565b600082825260208201905092915050565b60005b8381101562000c3457808201518184015260208101905062000c17565b60008484015250505050565b6000601f19601f8301169050919050565b600062000c5e82620007eb565b62000c6a818562000c03565b935062000c7c81856020860162000c14565b62000c878162000c40565b840191505092915050565b6000602082019050818103600083015262000cae818462000c51565b905092915050565b600081519050919050565b6000819050602082019050919050565b600062000cdf825162000b7a565b80915050919050565b600062000cf58262000cb6565b8262000d018462000cc1565b905062000d0e8162000cd1565b9250602082101562000d515762000d4c7fffffffffffffffffffffffffffffffffffffffffffffffffffffffffffffffff83602003600802620008ae565b831692505b5050919050565b7f4e487b7100000000000000000000000000000000000000000000000000000000600052601160045260246000fd5b600062000d948262000911565b915062000da18362000911565b925082820190508082111562000dbc5762000dbb62000d58565b5b92915050565b600060608201905062000dd9600083018662000b4c565b62000de8602083018562000b95565b62000df7604083018462000b95565b949350505050565b600060208201905062000e16600083018462000b95565b92915050565b60805160a05160c05160e051610100516101205161014051611e9d62000e776000396000610cc401526000610c89015260006111d9015260006111b801526000610a3701526000610a8d01526000610ab60152611e9d6000f3fe608060405234801561001057600080fd5b50600436106101005760003560e01c80637ecebe0011610097578063a9059cbb11610066578063a9059cbb146102a7578063d505accf146102d7578063dd62ed3e146102f3578063f2fde38b1461032357610100565b80637ecebe001461021757806384b0196e146102475780638da5cb5b1461026b57806395d89b411461028957610100565b8063313ce567116100d3578063313ce567146101a15780633644e515146101bf57806370a08231146101dd578063715018a61461020d57610100565b806306fdde0314610105578063095ea7b31461012357806318160ddd1461015357806323b872dd14610171575b600080fd5b61010d61033f565b60405161011a91906116c6565b60405180910390f35b61013d60048036038101906101389190611781565b6103d1565b60405161014a91906117dc565b60405180910390f35b61015b6103f4565b6040516101689190611806565b60405180910390f35b61018b60048036038101906101869190611821565b6103fe565b60405161019891906117dc565b60405180910390f35b6101a961042d565b6040516101b69190611890565b60405180910390f35b6101c7610436565b6040516101d491906118c4565b60405180910390f35b6101f760048036038101906101f291906118df565b610445565b6040516102049190611806565b60405180910390f35b61021561048d565b005b610231600480360381019061022c91906118df565b6104a1565b60405161023e9190611806565b60405180910390f35b61024f6104b3565b6040516102629796959493929190611a14565b60405180910390f35b61027361055d565b6040516102809190611a98565b60405180910390f35b610291610587565b60405161029e91906116c6565b60405180910390f35b6102c160048036038101906102bc9190611781565b610619565b6040516102ce91906117dc565b60405180910390f35b6102f160048036038101906102ec9190611b0b565b61063c565b005b61030d60048036038101906103089190611bad565b610784565b60405161031a9190611806565b60405180910390f35b61033d600480360381019061033891906118df565b61080b565b005b60606003805461034e90611c1c565b80601f016020809104026020016040519081016040528092919081815260200182805461037a90611c1c565b80156103c75780601f1061039c576101008083540402835291602001916103c7565b820191906000526020600020905b8154815290600101906020018083116103aa57829003601f168201915b5050505050905090565b6000806103dc610891565b90506103e9818585610899565b600191505092915050565b6000600254905090565b600080610409610891565b90506104168582856108ab565b61042185858561093f565b60019150509392505050565b60006012905090565b6000610440610a33565b905090565b60008060008373ffffffffffffffffffffffffffffffffffffffff1673ffffffffffffffffffffffffffffffffffffffff168152602001908152602001600020549050919050565b610495610aea565b61049f6000610b71565b565b60006104ac82610c37565b9050919050565b6000606080600080600060606104c7610c80565b6104cf610cbb565b46306000801b600067ffffffffffffffff8111156104f0576104ef611c4d565b5b60405190808252806020026020018201604052801561051e5781602001602082028036833780820191505090505b507f0f00000000000000000000000000000000000000000000000000000000000000959493929190965096509650965096509650965090919293949596565b6000600560009054906101000a900473ffffffffffffffffffffffffffffffffffffffff16905090565b60606004805461059690611c1c565b80601f01602080910402602001604051908101604052809291908181526020018280546105c290611c1c565b801561060f5780601f106105e45761010080835404028352916020019161060f565b820191906000526020600020905b8154815290600101906020018083116105f257829003601f168201915b5050505050905090565b600080610624610891565b905061063181858561093f565b600191505092915050565b8342111561068157836040517f627913020000000000000000000000000000000000000000000000000000000081526004016106789190611806565b60405180910390fd5b60007f6e71edae12b1b97f4d1f60370fef10105fa2faae0126114a169c64845d6126c98888886106b08c610cf6565b896040516020016106c696959493929190611c7c565b60405160208183030381529060405280519060200120905060006106e982610d4d565b905060006106f982878787610d67565b90508973ffffffffffffffffffffffffffffffffffffffff168173ffffffffffffffffffffffffffffffffffffffff161461076d57808a6040517f4b800e46000000000000000000000000000000000000000000000000000000008152600401610764929190611cdd565b60405180910390fd5b6107788a8a8a610899565b50505050505050505050565b6000600160008473ffffffffffffffffffffffffffffffffffffffff1673ffffffffffffffffffffffffffffffffffffffff16815260200190815260200160002060008373ffffffffffffffffffffffffffffffffffffffff1673ffffffffffffffffffffffffffffffffffffffff16815260200190815260200160002054905092915050565b610813610aea565b600073ffffffffffffffffffffffffffffffffffffffff168173ffffffffffffffffffffffffffffffffffffffff16036108855760006040517f1e4fbdf700000000000000000000000000000000000000000000000000000000815260040161087c9190611a98565b60405180910390fd5b61088e81610b71565b50565b600033905090565b6108a68383836001610d97565b505050565b60006108b78484610784565b90507fffffffffffffffffffffffffffffffffffffffffffffffffffffffffffffffff81146109395781811015610929578281836040517ffb8f41b200000000000000000000000000000000000000000000000000000000815260040161092093929190611d06565b60405180910390fd5b61093884848484036000610d97565b5b50505050565b600073ffffffffffffffffffffffffffffffffffffffff168373ffffffffffffffffffffffffffffffffffffffff16036109b15760006040517f96c6fd1e0000000000000000000000000000000000000000000000000000000081526004016109a89190611a98565b60405180910390fd5b600073ffffffffffffffffffffffffffffffffffffffff168273ffffffffffffffffffffffffffffffffffffffff1603610a235760006040517fec442f05000000000000000000000000000000000000000000000000000000008152600401610a1a9190611a98565b60405180910390fd5b610a2e838383610f6e565b505050565b60007f000000000000000000000000000000000000000000000000000000000000000073ffffffffffffffffffffffffffffffffffffffff163073ffffffffffffffffffffffffffffffffffffffff16148015610aaf57507f000000000000000000000000000000000000000000000000000000000000000046145b15610adc577f00000000000000000000000000000000000000000000000000000000000000009050610ae7565b610ae4611193565b90505b90565b610af2610891565b73ffffffffffffffffffffffffffffffffffffffff16610b1061055d565b73ffffffffffffffffffffffffffffffffffffffff1614610b6f57610b33610891565b6040517f118cdaa7000000000000000000000000000000000000000000000000000000008152600401610b669190611a98565b60405180910390fd5b565b6000600560009054906101000a900473ffffffffffffffffffffffffffffffffffffffff16905081600560006101000a81548173ffffffffffffffffffffffffffffffffffffffff021916908373ffffffffffffffffffffffffffffffffffffffff1602179055508173ffffffffffffffffffffffffffffffffffffffff168173ffffffffffffffffffffffffffffffffffffffff167f8be0079c531659141344cd1fd0a4f28419497f9722a3daafe3b4186f6b6457e060405160405180910390a35050565b6000600860008373ffffffffffffffffffffffffffffffffffffffff1673ffffffffffffffffffffffffffffffffffffffff168152602001908152602001600020549050919050565b6060610cb660067f000000000000000000000000000000000000000000000000000000000000000061122990919063ffffffff16565b905090565b6060610cf160077f000000000000000000000000000000000000000000000000000000000000000061122990919063ffffffff16565b905090565b6000600860008373ffffffffffffffffffffffffffffffffffffffff1673ffffffffffffffffffffffffffffffffffffffff1681526020019081526020016000206000815480929190600101919050559050919050565b6000610d60610d5a610a33565b836112d9565b9050919050565b600080600080610d798888888861131a565b925092509250610d89828261140e565b829350505050949350505050565b600073ffffffffffffffffffffffffffffffffffffffff168473ffffffffffffffffffffffffffffffffffffffff1603610e095760006040517fe602df05000000000000000000000000000000000000000000000000000000008152600401610e009190611a98565b60405180910390fd5b600073ffffffffffffffffffffffffffffffffffffffff168373ffffffffffffffffffffffffffffffffffffffff1603610e7b5760006040517f94280d62000000000000000000000000000000000000000000000000000000008152600401610e729190611a98565b60405180910390fd5b81600160008673ffffffffffffffffffffffffffffffffffffffff1673ffffffffffffffffffffffffffffffffffffffff16815260200190815260200160002060008573ffffffffffffffffffffffffffffffffffffffff1673ffffffffffffffffffffffffffffffffffffffff168152602001908152602001600020819055508015610f68578273ffffffffffffffffffffffffffffffffffffffff168473ffffffffffffffffffffffffffffffffffffffff167f8c5be1e5ebec7d5bd14f71427d1e84f3dd0314c0f7b2291e5b200ac8c7c3b92584604051610f5f9190611806565b60405180910390a35b50505050565b600073ffffffffffffffffffffffffffffffffffffffff168373ffffffffffffffffffffffffffffffffffffffff1603610fc0578060026000828254610fb49190611d6c565b92505081905550611093565b60008060008573ffffffffffffffffffffffffffffffffffffffff1673ffffffffffffffffffffffffffffffffffffffff1681526020019081526020016000205490508181101561104c578381836040517fe450d38c00000000000000000000000000000000000000000000000000000000815260040161104393929190611d06565b60405180910390fd5b8181036000808673ffffffffffffffffffffffffffffffffffffffff1673ffffffffffffffffffffffffffffffffffffffff16815260200190815260200160002081905550505b600073ffffffffffffffffffffffffffffffffffffffff168273ffffffffffffffffffffffffffffffffffffffff16036110dc5780600260008282540392505081905550611129565b806000808473ffffffffffffffffffffffffffffffffffffffff1673ffffffffffffffffffffffffffffffffffffffff168152602001908152602001600020600082825401925050819055505b8173ffffffffffffffffffffffffffffffffffffffff168373ffffffffffffffffffffffffffffffffffffffff167fddf252ad1be2c89b69c2b068fc378daa952ba7f163c4a11628f55a4df523b3ef836040516111869190611806565b60405180910390a3505050565b60007f8b73c3c69bb8fe3d512ecc4cf759cc79239f7b179b0ffacaa9a75d522b39400f7f00000000000000000000000000000000000000000000000000000000000000007f0000000000000000000000000000000000000000000000000000000000000000463060405160200161120e959493929190611da0565b60405160208183030381529060405280519060200120905090565b606060ff60001b83146112465761123f83611572565b90506112d3565b81805461125290611c1c565b80601f016020809104026020016040519081016040528092919081815260200182805461127e90611c1c565b80156112cb5780601f106112a0576101008083540402835291602001916112cb565b820191906000526020600020905b8154815290600101906020018083116112ae57829003601f168201915b505050505090505b92915050565b60006040517f190100000000000000000000000000000000000000000000000000000000000081528360028201528260228201526042812091505092915050565b60008060007f7fffffffffffffffffffffffffffffff5d576e7357a4501ddfe92f46681b20a08460001c111561135a576000600385925092509250611404565b60006001888888886040516000815260200160405260405161137f9493929190611df3565b6020604051602081039080840390855afa1580156113a1573d6000803e3d6000fd5b505050602060405103519050600073ffffffffffffffffffffffffffffffffffffffff168173ffffffffffffffffffffffffffffffffffffffff16036113f557600060016000801b93509350935050611404565b8060008060001b935093509350505b9450945094915050565b6000600381111561142257611421611e38565b5b82600381111561143557611434611e38565b5b031561156e576001600381111561144f5761144e611e38565b5b82600381111561146257611461611e38565b5b03611499576040517ff645eedf00000000000000000000000000000000000000000000000000000000815260040160405180910390fd5b600260038111156114ad576114ac611e38565b5b8260038111156114c0576114bf611e38565b5b03611505578060001c6040517ffce698f70000000000000000000000000000000000000000000000000000000081526004016114fc9190611806565b60405180910390fd5b60038081111561151857611517611e38565b5b82600381111561152b5761152a611e38565b5b0361156d57806040517fd78bce0c00000000000000000000000000000000000000000000000000000000815260040161156491906118c4565b60405180910390fd5b5b5050565b6060600061157f836115e6565b90506000602067ffffffffffffffff81111561159e5761159d611c4d565b5b6040519080825280601f01601f1916602001820160405280156115d05781602001600182028036833780820191505090505b5090508181528360208201528092505050919050565b60008060ff8360001c169050601f81111561162d576040517fb3512b0c00000000000000000000000000000000000000000000000000000000815260040160405180910390fd5b80915050919050565b600081519050919050565b600082825260208201905092915050565b60005b83811015611670578082015181840152602081019050611655565b60008484015250505050565b6000601f19601f8301169050919050565b600061169882611636565b6116a28185611641565b93506116b2818560208601611652565b6116bb8161167c565b840191505092915050565b600060208201905081810360008301526116e0818461168d565b905092915050565b600080fd5b600073ffffffffffffffffffffffffffffffffffffffff82169050919050565b6000611718826116ed565b9050919050565b6117288161170d565b811461173357600080fd5b50565b6000813590506117458161171f565b92915050565b6000819050919050565b61175e8161174b565b811461176957600080fd5b50565b60008135905061177b81611755565b92915050565b60008060408385031215611798576117976116e8565b5b60006117a685828601611736565b92505060206117b78582860161176c565b9150509250929050565b60008115159050919050565b6117d6816117c1565b82525050565b60006020820190506117f160008301846117cd565b92915050565b6118008161174b565b82525050565b600060208201905061181b60008301846117f7565b92915050565b60008060006060848603121561183a576118396116e8565b5b600061184886828701611736565b935050602061185986828701611736565b925050604061186a8682870161176c565b9150509250925092565b600060ff82169050919050565b61188a81611874565b82525050565b60006020820190506118a56000830184611881565b92915050565b6000819050919050565b6118be816118ab565b82525050565b60006020820190506118d960008301846118b5565b92915050565b6000602082840312156118f5576118f46116e8565b5b600061190384828501611736565b91505092915050565b60007fff0000000000000000000000000000000000000000000000000000000000000082169050919050565b6119418161190c565b82525050565b6119508161170d565b82525050565b600081519050919050565b600082825260208201905092915050565b6000819050602082019050919050565b61198b8161174b565b82525050565b600061199d8383611982565b60208301905092915050565b6000602082019050919050565b60006119c182611956565b6119cb8185611961565b93506119d683611972565b8060005b83811015611a075781516119ee8882611991565b97506119f9836119a9565b9250506001810190506119da565b5085935050505092915050565b600060e082019050611a29600083018a611938565b8181036020830152611a3b818961168d565b90508181036040830152611a4f818861168d565b9050611a5e60608301876117f7565b611a6b6080830186611947565b611a7860a08301856118b5565b81810360c0830152611a8a81846119b6565b905098975050505050505050565b6000602082019050611aad6000830184611947565b92915050565b611abc81611874565b8114611ac757600080fd5b50565b600081359050611ad981611ab3565b92915050565b611ae8816118ab565b8114611af357600080fd5b50565b600081359050611b0581611adf565b92915050565b600080600080600080600060e0888a031215611b2a57611b296116e8565b5b6000611b388a828b01611736565b9750506020611b498a828b01611736565b9650506040611b5a8a828b0161176c565b9550506060611b6b8a828b0161176c565b9450506080611b7c8a828b01611aca565b93505060a0611b8d8a828b01611af6565b92505060c0611b9e8a828b01611af6565b91505092959891949750929550565b60008060408385031215611bc457611bc36116e8565b5b6000611bd285828601611736565b9250506020611be385828601611736565b9150509250929050565b7f4e487b7100000000000000000000000000000000000000000000000000000000600052602260045260246000fd5b60006002820490506001821680611c3457607f821691505b602082108103611c4757611c46611bed565b5b50919050565b7f4e487b7100000000000000000000000000000000000000000000000000000000600052604160045260246000fd5b600060c082019050611c9160008301896118b5565b611c9e6020830188611947565b611cab6040830187611947565b611cb860608301866117f7565b611cc560808301856117f7565b611cd260a08301846117f7565b979650505050505050565b6000604082019050611cf26000830185611947565b611cff6020830184611947565b9392505050565b6000606082019050611d1b6000830186611947565b611d2860208301856117f7565b611d3560408301846117f7565b949350505050565b7f4e487b7100000000000000000000000000000000000000000000000000000000600052601160045260246000fd5b6000611d778261174b565b9150611d828361174b565b9250828201905080821115611d9a57611d99611d3d565b5b92915050565b600060a082019050611db560008301886118b5565b611dc260208301876118b5565b611dcf60408301866118b5565b611ddc60608301856117f7565b611de96080830184611947565b9695505050505050565b6000608082019050611e0860008301876118b5565b611e156020830186611881565b611e2260408301856118b5565b611e2f60608301846118b5565b95945050505050565b7f4e487b7100000000000000000000000000000000000000000000000000000000600052602160045260246000fdfea26469706673582212201d0fbcc5bb719e2e01fbe4b1d5ecac9a41ee7c44720943a3470d30ae631c5eee64736f6c63430008180033",
  "linkReferences": {},
  "deployedLinkReferences": {}
}